:020000040800F2
:1000000040120020C51C0008E51B0008E71B000883
:10001000E91B0008EB1B0008ED1B000800000000B6
:100020000000000000000000000000003D09000882
:10003000EF1B000800000000E5080008F11B0008A5
:10004000E11C0008E51C0008E91C0008ED1C000884
:10005000F11C0008F51C0008F91C0008FD1C000834
:10006000011D0008051D0008091D00080D1D0008E0
:10007000111D0008151D0008191D00081D1D000890
:10008000211D0008251D0008291D00082D1D000840
:10009000311D0008351D0008391D00083D1D0008F0
:1000A000411D0008451D0008491D00084D1D0008A0
:1000B000511D0008551D0008591D00085D1D000850
:1000C000611D0008651D0008691D00086D1D000800
:1000D000711D0008751D0008791D00087D1D0008B0
:1000E000811D0008851D0008891D00088D1D000860
:1000F000911D0008951D0008991D00089D1D000810
:10010000000000000000000000000000A11D000829
:10011000A51D0008A91D0008AD1D0008B11D00089F
:10012000B51D0008B91D0008BD1D0008C11D00084F
:10013000C51D0008C91D00080000000000000000E7
:10014000CD1D0008D11D0008D51D000800000000CD
:10015000000000000000000000000000000000009F
:100160000000000000000000D91D0008DD1D00088F
:10017000E11D000800000000000000000000000079
:1001800000000000E51D0008F0B585B050260B9D6D
:1001900025B986F3118800F01BFAFEE70C9C24B900
:1001A00086F3118800F014FAFEE754270097009FA9
:1001B000542F04D086F3118800F00AFAFEE70A9E55
:1001C0002563029400250395009604AD019500F087
:1001D00006F8204600F03FF8049805B0F0BD2DE980
:1001E000F0470A9E8146306B00EB8202101FC00868
:1001F0004FEAC00A0022885CB41884F83400885C96
:1002000010B1521C102AF6D3089D002086F8430036
:10021000062D099C88BF062506F14407F5623D605E
:1002200078609846301D00F03CFA06F1180000F0A6
:1002300038FA3661C5F10705B56176620020B8600D
:10024000387342464946504600F066FA306004B1C1
:100250002660BDE8F0872DE9F04100F067F8DFF88F
:100260009C53DFF8A483E86C401CE8641426A86A59
:1002700028BBAC62E86C012829D1002706FB07F0F7
:10028000404400F001FA7F1C072FF7D305F17400FA
:1002900000F0FAF905F18807384600F0F5F928462C
:1002A00000F0F2F905F1140000F0EEF905F1380064
:1002B00000F0EAF905F17400E8622F6307E0A86D29
:1002C00028B9E16AA86AC26A914228BFAC62A86EE6
:1002D000401CA86600F081F94643211D08EB06008A
:1002E00000F0E2F900F0ABFAA86D30B100F028F9A7
:1002F00003D200F07DF900F06BF9BDE8F08180B524
:1003000078B1DFF8F822116F11B100F05EF9FEE765
:10031000116F491C1167002100F078F900F031F8E5
:1003200018B900F065F900F053F901BD044600F07A
:100330006DBA80B586B000200590049003AA04A988
:1003400005A800F0C5FA05990498029100220092D0
:1003500001900023039A0FF228310FF2F110FFF7FA
:1003600013FF60B100F031F9DFF808034FF0FF31FF
:10037000C166012181650021016500F0F5F907B032
:1003800000BD70B5DFF87462306F0024002520B91D
:1003900000F044F800F01CF9FEE700F037FA306F87
:1003A000401E3067316F002937D1F06CD8B934E086
:1003B000F168CC6800F036F800F004F9E06A716D7D
:1003C00001228240114371651423DFF8A0225843B3
:1003D000211D104400F068F9E06AB16ACA6A9042CF
:1003E00024BF0120306630680028E1D10CB100F054
:1003F000D0F8F46D3CB100F019F808B10120306676
:10040000641EF8D1F565306E38B1DFF864024FF044
:1004100080510125016000F0DBF8E5E0502181F317
:100420001188704704F1180000F063B92DE9F84312
:10043000DFF8C871386F002600284FD13C6D641C6E
:100440003C6510D1F86A006820B1FFF7E7FF00F0C3
:10045000BFF8FEE7F86A396BF9623863786E401CC2
:10046000786600F096F8F86EDFF8009284424FF05C
:10047000140825D31AE0281D00F03BF9A86A18B12A
:1004800005F1180000F035F9E86A796D0122824023
:100490001143796508FB00F0291D484400F004F978
:1004A000E86AB96ACA6A904228BF0126F86A0068F9
:1004B00080B1F96AC868C56868688442DBD2F866AA
:1004C000B86AC06A08FB00F159F80100022808D395
:1004D000012606E04FF0FF31F966F1E7F86D401CA8
:1004E000F865386E00B101268AE0DFF8101181B09E
:1004F000086F10B101220A6620E00866DFF86C314F
:10050000486DB0FA80F2C2F11F021420424398589D
:1005100038B9502181F31188BFF34F8FBFF36F8F2C
:10052000FEE7981800F108034268526842609A4258
:1005300004BF526842604068C2688A6201B0704776
:10054000A96AC86AE16A884270470000F8B5DFF816
:100550002041DFF8B460DFF81C714FF080550EE0E9
:1005600000F054F9386AC168081D00F0C2F8F86C50
:10057000401EF864786B401E786300F060F9786B79
:100580000028EDD131680229F9D3256000F020F868
:10059000F5E71A49C86A006810B94FF0FF3203E066
:1005A000C86AC268D0684268CA667047DFF8C4107B
:1005B000886D08B901207047086F08B9022070479C
:1005C00000207047201D00F094B8502080F311885F
:1005D000BFF34F8FBFF36F8F70470122E06A696DE1
:1005E000824011436965704700F029F9284670BDC3
:1005F0001F494FF08050086070470000180C002021
:100600003046BDE8F2830000B40C0020F8B5194D67
:100610002F6D0C46A96A0646081D00F06AF830B92D
:10062000A86A696DC06A012282409143696516F12A
:10063000010F05D124B1A86A011D05F138001BE0A6
:10064000A86AF6194660BE42A86A05D2011D286B49
:10065000BDE8F44000F034B8011DE86A00F030F85D
:10066000E86E864238BFEE66F1BD0000B40C002093
:1006700004ED00E0180C0020BDE8F44000F014B8D0
:1006800049444C450000000000F1080141604FF072
:10069000FF31816000F10801C1600161002101604A
:1006A000704700210161704742684A6093688B601F
:1006B00093685960916008610168491C0160704746
:1006C00030B50A6812F1010F08BF036907D000F1C5
:1006D000080300E023465C682568AA42FAD25A68FB
:1006E0004A6091608B60596008610168491C016033
:1006F00030BD4368016982689A60836842685A60C5
:100700004A68824204BF82684A6000220261086827
:10071000401E0860086870474908490010B5A0F1FC
:1007200020034FF080749961DC611A600FF21101AF
:1007300059616FF0020140F8241D203810BD0000FF
:1007400052494A68502012F1010F06D080F31188F7
:10075000BFF34F8FBFF36F8FFEE780F31188BFF3B6
:100760004F8FBFF36F8FFEE77CB54949494B0A684D
:1007700050209A4202D100F082F8FEE70B68464C06
:10078000A34202D100F07BF8FEE7444A14780194BA
:10079000FF231370072513783C4C8DF800309DF82B
:1007A0000030A56003F05003237006E05B1EA360D9
:1007B0009DF800305B008DF80030A3689DF8005074
:1007C0002E06F3D4C3F10705042D02D000F057F82C
:1007D000FEE71B0203F4E063A36001981070086A4F
:1007E00040F470000862086A40F07040086200F04F
:1007F0005BF80020606000F0BFF82948016841F014
:100800004041016000F0A8F8002076BD502080F340
:100810001188BFF34F8FBFF36F8F1C494A68521C7A
:10082000012A4A600AD11F490A68130606D080F3DC
:100830001188BFF34F8FBFF36F8FFEE770471349E7
:10084000486838B9502080F31188BFF34F8FBFF349
:100850006F8FFEE7401E486008BF80F31188704725
:1008600080B5502000F00BF8FFF7E0FD18B10D49FE
:100870004FF080500860002181F3118801BD80F3A2
:100880001188BFF34F8FBFF36F8F704700000020B8
:1008900000ED00E071C20F4170C20F4100E400E0C2
:1008A00034EF00E004ED00E00748002101608160C2
:1008B0004FF47A7305490A68B2FBF3F35B1E436099
:1008C00007210160704700BF10E000E01800002021
:1008D000034B036003F154000860802010607047F0
:1008E000C4030020EFF30980BFF36F8F264B1A6813
:1008F0001EF0100F08BF20ED108A20E9F04F1060A5
:1009000009B44FF0500080F31188BFF34F8FBFF34D
:100910006F8FFFF7EAFD4FF0000080F3118809BCEC
:1009200019680868B0E8F04F1EF0100F08BFB0EC6F
:10093000108A80F30988BFF36F8F7047124B1968D4
:100940000868B0E8F04F80F30988BFF36F8F4FF06D
:10095000000080F3118870470C480068006880F33D
:1009600008884FF0000080F3148862B661B6BFF3C8
:100970004F8FBFF36F8F00DFDFF81400016841F481
:100980007001016070470000400C002008ED00E09D
:1009900088ED00E02DE9F843040019D02078DFF855
:1009A0003C54C10716D5686800F00C0004280AD032
:1009B000686800F00C00082802BF686800F4803006
:1009C000B0F5803F3FD100F0E0F918B16068002831
:1009D00000F0F9802178DFF81064880719D568687D
:1009E00010F00C0F07D0686800F00C00082865D1E3
:1009F0006868C10362D400F0CCF91CBF20690128EB
:100A000040F0E1802968606921F0F80141EAC00105
:100A100029602178080740F1D880A069DFF8CC135D
:100A2000002869D001220A6000F0FEF90746686AD2
:100A300000F0B0F940F0C98000F0F6F9C01B0228C0
:100A4000F5D903201DE16068B0F5803F09D008B9F1
:100A500029680AE0B0F5A02F296806D141F4802169
:100A60002960286840F4803005E021F48031296055
:100A7000286820F480202860E96AA068090940EA13
:100A80000111E962606860B100F0CEF9064600F03D
:100A90007CF900289ED100F0C7F9801B6528F6D3A9
:100AA000CFE700F0C1F9064600F06FF9002891D0B9
:100AB00000F0BAF9801B6528F6D3C2E7206970B14F
:100AC0000121316000F0B0F9074600F062F940F012
:100AD000A78000F0A9F9C01B0228F6D9B1E7306061
:100AE00000F0A2F9074600F054F992D000F09CF90A
:100AF000C01B0228F7D9A4E7086000F095F9074663
:100B0000686A00F047F960D000F08EF9C01B022837
:100B1000F6D996E708B9286A09E00528286A06D1B7
:100B200040F004002862286A40F0010005E0400817
:100B300040002862286A20F00400286241F28938C7
:100B4000E06868B100F070F98146286A00F022F987
:100B500073D100F069F9A0EB09004045F5D370E7C7
:100B600000F062F98146286A00F014F965D000F0BF
:100B70005BF9A0EB09004045F5D362E700F054F9BA
:100B8000C01B02286AD95CE700F04EF9001B02285E
:100B900073D956E700F07CF8044600F074F86FD083
:100BA00000F042F9001B0228F7D94AE701280AD0D1
:100BB0006868226A00F48031914202BF00F470102C
:100BC000616A88425CD001205BE02078410739D51A
:100BD000E8690027C10009D4E86940F08050E86165
:100BE0000127E86900F0805000900098DFF800824B
:100BF000D8F80010C8051BD4D8F8000040F4807065
:100C0000C8F8000000F010F98146D8F80010C805B7
:100C10000ED400F009F9A0EB09006528F5D310E720
:100C20002868616920F0F80040EAC1002860F0E619
:100C3000E06801287FF46EAF75E71FB1E86920F026
:100C40008050E861E069D8B1696801F00C010829B9
:100C5000ACD002289ED100F01BF8074600F013F834
:100C60008CD16968606A21F474110143206A0143E0
:100C70006960012000F00DF8044600F004F883D00C
:100C80000020BDE8F2832868C0F340600028704768
:100C90000020306600F0C8B82DE9F843040088460B
:100CA00067D0544E306800F00700404502D200F093
:100CB00062F85ED12178494D880705D56968A0683A
:100CC00021F0F001014369602078C10749D56168CE
:100CD000012902D100F059F804E00229286803D163
:100CE000C0F3406018B944E000F054F841D068689F
:100CF000800841EA8001696041F2893900F094F886
:100D000007466868616800F00C00B0EB810F28D0DE
:100D100000F08AF8C01B4845F3D303201FE0207879
:100D2000410705D56968E06821F4E0610143696025
:100D30002078010706D56868216920F4605040EAF0
:100D4000C100686000F02EF86A682B49C2F30312F4
:100D5000895C234AC840106000F020F80020BDE8FC
:100D6000F283306800F007008045D8D200F003F825
:100D7000D5D00120F3E73168C90848EAC1013160E4
:100D8000306800F00700404570472868C0F34040D5
:100D900070472868C0F34000002870471748006873
:100DA00000F048B816490A6802F00C00082813D170
:100DB00015A3C2F38340D203185C896A09D500BF2A
:100DC00015A3084A01F00F01595CB2FBF1F1484349
:100DD00070470C4948437047024870470010024072
:100DE0001800002000127A000000424280044242B3
:100DF00000700040002002405C1B0008140000202E
:100E00000410024000093D0002030405060708091A
:100E10000A0B0C0D0E0F1010010203040506070843
:100E2000090A0B0C0D0E0F1001484068704700BFF7
:100E30000C00002038B50D4D0D4A297804464FF4BA
:100E40007A70B0FBF1F11068B0FBF1F000F04BF8F4
:100E500050B9102C08D2002221464FF0FF3000F08C
:100E600025F8AC60002032BD012032BD0C0000200E
:100E7000180000200901020081B002D424488154E6
:100E800005E0244802F00F02104400F8041C01B0F1
:100E90007047214A13684FF6FF0100020B4000F42F
:100EA000E06018431D4908431060704738B51A4B7D
:100EB0001C68C4F30223C3F10704052C28BF0424D3
:100EC0001D1D072D34BF0023DB1E012505FA04F488
:100ED000641E2140994005FA03F35B1E1A4011433A
:100EE000BDE83440C6E710B5401EB0F1807F01D3A5
:100EF000012010BD0A4C60600F214FF0FF30FFF75A
:100F0000B9FF0022A26007202060002010BD000071
:100F100000E400E018ED00E00CED00E00000FA0550
:100F200010E000E030B595B000F08AF900F0D9F893
:100F30006846142100F096F9A348A44C016841F4D6
:100F4000001101604FF60875026802F40012059264
:100F50000599016841F400210160026802F4002251
:100F600005920599016841F480010160026802F46C
:100F7000800205920599016841F400310160026820
:100F800002F40032059200220599016841F48021A3
:100F900001602946006800F48020059005982046ED
:100FA00000F02BFA3720009000208949019102902F
:100FB0006946204600F05AF9012000210190029173
:100FC000039100956946204600F050F90120002168
:100FD0000090019102914FF09040694600F046F96F
:100FE0007C4C7D48606604F184057C48A066002046
:100FF000E0660120206700206067A067E067C4F812
:101000008000286004F1640000F014FA08B100F0D8
:10101000D5F8002104F1640000F066FA08B100F090
:10102000CDF8002104F1640000F076FA08B100F078
:10103000C5F86B4820604FF4827060600020A060AB
:101040004FF44070E0600020206160614FF4007058
:10105000A0610820E061002020626062A062072099
:10106000E0620020206308206063204600F080FAE0
:1010700008B100F0A3F85B48E8620820286302206A
:101080006863E86300206864E86404F1B00000F07D
:10109000CBFA08B100F092F80DF1380053A11C22F0
:1010A00000F010FB00210EA804F5677400F059FB56
:1010B00020601C220DF11C0053A100F003FB002155
:1010C00007A800F04EFB60601C22684655A100F0A6
:1010D000F9FA0021684600F044FBA06000F03CFBF8
:1010E000FEE780B59EB005A8282100F0BBF8684651
:1010F000142100F0B7F80FA83C2100F0B3F803204A
:1011000005904FF4A021069100200790012109913C
:1011100010200A9002210C914FF480300D904FF472
:1011200080110E9105A8FFF735FC08B100F046F8D4
:101130000F2002210090019100204FF48061029065
:101140000391049001216846FFF7A6FD08B100F065
:1011500035F825480F9000214FF480001D9016911E
:101160000FA800F019FB08B100F028F81FB000BD6F
:1011700038B5164C41F28835284600F005FB4FF48F
:101180008071204600F040F9F6E710B50F4C4FF49F
:101190007A7000F0F9FA4FF40071204600F034F94B
:1011A000F5E738B5094C40F6B835284600F0ECFABA
:1011B0004FF40051204600F027F9F6E74FF4804144
:1011C000024800F021B9000014100240001000484D
:1011D000000012101C000020005400400E090020E6
:1011E00000300140005C004020000200C01B0008ED
:1011F00071110008000000000000000080000000E5
:1012000018060020400D0020CC1B00088B110008A0
:10121000FEFF000000000000800000001808002011
:10122000940D0020D81B0008A31100080000000046
:101230000000000080000000180A0020E80D0020D7
:1012400080B50748016841F0100101600320FFF7F5
:1012500020FE0020FFF7EEFD00F07AFB002002BD2B
:1012600000200240002200F01BBC00002DE9F84FD6
:101270004FF00009684A694B4FF00F0805460E46CB
:1012800033E0674FBD4214BF052704278F40274333
:101290004CF82E70C143146801EA040C7468E4032E
:1012A00048BF40EA0C0CC2F800C0546801EA040CC4
:1012B0007468A40348BF40EA0C0CC2F804C09468E8
:1012C00001EA040C7468E40248BF40EA0C0CC2F85E
:1012D00008C0D46801EA040C7168890248BF40EA7A
:1012E0000C0CC2F80CC009F10109316831FA09F09F
:1012F00000F08180012404FA09F414EA0100F2D01C
:101300004FEA490C032101FA0CF16FEA010E7168F2
:10131000012918BF022903D0112918BF122911D1A0
:10132000A968F7680EEA010107FA0CF73943A960CA
:10133000696821EA04047168C1F3001101FA09F136
:101340000C436C60E968B4680EEA010104FA0CF41D
:101350002143E9604FEA89017468022C18BF122CFE
:1013600012D14FEAD90405EB840401F01C07D4F82C
:1013700020A008FA07FB2AEA0B0AD6F810B00BFAED
:1013800007F747EA0A0727622C680EEA0407347950
:1013900004F0030404FA0CF43C432C607468E40089
:1013A000A1D51C68DFF87CC044F001041C604FEA42
:1013B000990E1C6804F00104009401F00C01009CDB
:1013C0005CF82E7008FA01F427EA0404B5F1904F96
:1013D00008BF00270ED0144FBD4208BF012709D017
:1013E000124FBD4208BF022704D0114FBD427FF407
:1013F00048AF03274AE7BDE8F18F81B0002A14BF48
:101400008161816201B07047426901EA0203914340
:1014100041EA034181617047000401401810024015
:10142000001000480800014000040048000800487F
:10143000000C004838B5040001D1012032BD04F190
:101440004005687820B900212970204600F096FAFE
:1014500000F041F86068216820F070600861206841
:10146000816821F400418160E068A168012820685A
:101470000CBF41F4004141F404418160E16802295C
:1014800003D122684FF4006050602068416841F049
:10149000007141F4004141602068C16821F40041BD
:1014A000C1606069216922680143A06941EA0021A5
:1014B000D160206AE1690143206801602068016809
:1014C00041F0010101600020686020206870002068
:1014D0002063A87032BD2420687020680168490824
:1014E000490001607047000030B500F140025378B8
:1014F000202B0FD11478012C0CD000F02DF81D6892
:1015000025F480551D6003681C682143196000F0B4
:1015100019F830BD022030BD10B500F140025378FB
:10152000202B0DD11478012C0AD000F015F81C687E
:1015300024F4706444EA01241C6000F003F810BD38
:10154000022010BD0068016841F001010160202007
:1015500050700020107070470123137024235370C3
:1015600003681C68640864001C600368704700001E
:1015700038B5040001D1012032BD0020A06204F181
:101580005C05687820B900212970204600F021FA16
:101590000220687000F042F8E268B2F5E06F04D90A
:1015A0000021B2F5706F03D104E04FF4805101D0F7
:1015B0000020A062206B30B9B2F5E06F87BF022235
:1015C0002263012020636268A068A3690243206946
:1015D00002436069024303F40073E0691A43024363
:1015E000206A0243A06A024320680260A269606A1E
:1015F000120C02F004020243606B0243E0680243F3
:101600002068114341602068C16921F40061C16113
:101610000020686001206870002032BD20680168E9
:1016200021F040010160704730B5040085B008BF6B
:1016300001203DD004F52A75687820B90021297071
:10164000204600F0EEF903206870206800F042FAAE
:10165000002128200AE010FB01F222442832012355
:1016600053701170D181002300F024F86268914218
:10167000F1D3002109E010FB01F2224402F5B4721B
:1016800000231170537000F015F862689142F2D394
:1016900083B0211D6846202200F014F80EBC20689B
:1016A00000F01EFA002084F8240001206870002059
:1016B00005B030BD491CD370136153619361C9B249
:1016C00070470000103A07D330B4B1E83810103A30
:1016D000A0E83810F9D230BC530724BFB1E8081095
:1016E000A0E8081044BF51F8043B40F8043BD2077F
:1016F00024BF31F8022B20F8022B44BF0B78037073
:101700007047121F17D35B0009D151F8043B20F832
:10171000023B1B0C121F20F8023BF6D20BE051F8E3
:10172000043B00F8013B1B0A20F8023B1B0C121F74
:1017300000F8013BF3D238BF121D521E24BF11F82E
:10174000013B00F8013BF8D870470000014600203B
:10175000842918BFC81C704780B5FEF7EAFD002039
:1017600002BD3EB504460D46B4F90800FFF7EEFF92
:10177000A16902912B46616901910090226921685B
:101780006068FEF701FD3EBD80B500B90120FEF79F
:10179000B6FD002002BD00002DE9FC410546DFF842
:1017A000A4612868C10354D5B0690024C10009D4DC
:1017B000B06940F08050B0610124B06900F0805001
:1017C00000900098DFF880713968C80517D4386830
:1017D00040F480703860FFF727FB80463968C80501
:1017E0000DD4FFF721FBA0EB08006528F6D30320FA
:1017F000A5E0FFF719FBC01B40451AD3F7E7F069D6
:1018000010F440701EBF696801F44071884215D021
:10181000DFF83811F06901220A6020F440700022DC
:101820000A60F061C00709D5FFF7FEFA074641F2EA
:101830008938F069C0F340000028DAD0F16968689F
:1018400021F440710143F1611CB1B06920F0805076
:10185000B0612978C80705D5F16AA868890840EA07
:101860008101F1622878810705D5F16AE86821F4E1
:1018700040310143F1622878410705D5F16A2869B2
:1018800021F440210143F1622878810605D5F16AEF
:10189000E86921F010010143F1622868810305D550
:1018A0003168A86B21F4800101433160287841063A
:1018B00005D5F16A286A21F020010143F1622878F8
:1018C000010705D5F16A686921F440110143F1620D
:1018D0002878C10605D5F16AA86921F440010143C1
:1018E000F1622868810505D53168E86A21F40001B4
:1018F000014331602878010605D5B16A686A21F490
:10190000F8710143B1622868C10505D5B16AA86ABA
:1019100021F478510143B1622868C10405D5F16A08
:10192000286B21F480710143F1622868810405D598
:10193000F16A686B21F400710143F1620020BDE897
:10194000F681000004100240007000404004424252
:101950004D4881B0016841F001010160026802F068
:10196000010200920099416841F080514160406855
:1019700000F080500090009801B0704710B586B01C
:1019800000F04AF82168414A914220D1404C206839
:1019900040F4802020601222216801F4802100910F
:1019A000C02100980191012003900321042004919B
:1019B0000590029201A93748FFF758FCA06840F44F
:1019C0000010A060A06800F400100090009806B01D
:1019D00010BD10B586B000F01FF821682E4A914264
:1019E00018D12B48416841F480514160022241687E
:1019F00001F4805100910099016841F400310160C7
:101A0000E021006800F40030009000F02EF805207E
:101A100000F031F806B010BD044601A81421FFF70C
:101A200021BC10B586B0FFF7F7FF21681B4A914231
:101A300019D1174C206840F4003020600222216840
:101A400001F4003100914FF4C05100F00EF80E2067
:101A500000F011F8A06840F40000A060A06800F455
:101A600000000090009806B010BD00980191002081
:101A700003900321704704910590029201A94FF051
:101A80009040FFF7F3BB00001810024000540040E4
:101A9000141002400004004800300140005C004087
:101AA00000B500BF130096469446103928BFA0E841
:101AB0000C50FAD85FEA417C28BF0CC048BF40F800
:101AC000042BC90728BF20F8022B48BF00F8012BC0
:101AD00000BD0000B0F8402044F2FF0100F00BB858
:101AE0000EB4012120F8401F002101808180018275
:101AF000002003B070470A40A0F840200020704743
:101B000019E050F8042BD30744BFA9F101039A1838
:101B1000091F0023042942F8043BF9D25FEA817CC3
:101B2000134604D54FF0000CA2F800C09B1CC90757
:101B300044BF0021197050F8041B0029E1D17047FF
:101B40000448054A016841F4700101604FF00060EB
:101B50001060704788ED00E008ED00E00000000034
:101B600000000000010203040607080910B450F841
:101B7000041B79B10268436802440830DC0744BFA3
:101B8000A9F10104E31852F8044B43F8044B091F70
:101B9000F9D1ECE710BC704710B50749794418310A
:101BA000064C7C44163404E00A68081D114488473A
:101BB0000146A142F8D110BD84000000A40000003D
:101BC00064656661756C745461736B006D79546102
:101BD000736B3032000000006D795461736B3033E9
:101BE000000000007047FEE7FEE7FEE7FEE77047F3
:101BF00080B500F009F8FEF7D9FC012803D0BDE854
:101C00000140FEF72DBE01BD0248416802788918E7
:101C1000416070470C0000204EF68851CEF2000162
:101C2000086840F470000860BFF34F8FBFF36F8FF8
:101C30004FF00070E1EE100A70470000C5FEFFFF94
:101C4000200E00001C0000200000000021FFFFFF0C
:101C50001C000000540000000000002000000000F4
:101C600000F00DF8002801D0FFF796FFAFF30080D9
:101C70000020AFF30080FFF755F900F002F80120D3
:101C8000704700F001B800000746384600F002F83F
:101C9000FBE7000080B5AFF30080024A1100182076
:101CA000ABBEFBE72600020000000000AAAAAAAA19
:101CB0000000000001000000000000001000000013
:101CC00000127A000148804701480047411B000884
:101CD000D51C0008AFF30080FFF79EFFFFF7C0FFA1
:101CE000FFF7FEBFFFF7FEBFFFF7FEBFFFF7FEBF28
:101CF000FFF7FEBFFFF7FEBFFFF7FEBFFFF7FEBF18
:101D0000FFF7FEBFFFF7FEBFFFF7FEBFFFF7FEBF07
:101D1000FFF7FEBFFFF7FEBFFFF7FEBFFFF7FEBFF7
:101D2000FFF7FEBFFFF7FEBFFFF7FEBFFFF7FEBFE7
:101D3000FFF7FEBFFFF7FEBFFFF7FEBFFFF7FEBFD7
:101D4000FFF7FEBFFFF7FEBFFFF7FEBFFFF7FEBFC7
:101D5000FFF7FEBFFFF7FEBFFFF7FEBFFFF7FEBFB7
:101D6000FFF7FEBFFFF7FEBFFFF7FEBFFFF7FEBFA7
:101D7000FFF7FEBFFFF7FEBFFFF7FEBFFFF7FEBF97
:101D8000FFF7FEBFFFF7FEBFFFF7FEBFFFF7FEBF87
:101D9000FFF7FEBFFFF7FEBFFFF7FEBFFFF7FEBF77
:101DA000FFF7FEBFFFF7FEBFFFF7FEBFFFF7FEBF67
:101DB000FFF7FEBFFFF7FEBFFFF7FEBFFFF7FEBF57
:101DC000FFF7FEBFFFF7FEBFFFF7FEBFFFF7FEBF47
:101DD000FFF7FEBFFFF7FEBFFFF7FEBFFFF7FEBF37
:081DE000FFF7FEBFFFF7FEBF95
:0400000508001CD5FE
:00000001FF
